:100000000C94B2000C94DA000C94DA000C94DA0030
:100010000C94DA000C94DA000C94DA000C94DA00F8
:100020000C94DA000C94DA000C94DA000C94DA00E8
:100030000C94DA000C94DA000C94DA000C94DA00D8
:100040000C94DA000C94DA000C9445010C94DA005C
:100050000C94DA000C94DA000C94DA000C94DA00B8
:100060000C94DA000C94DA0000407A10F35A00A0E5
:10007000724E18090010A5D4E80000E87648170071
:1000800000E40B54020000CA9A3B000000E1F505B1
:10009000000080969800000040420F000000A086FB
:1000A00001000000102700000000E803000000002D
:1000B0006400000000000A000000000001000000D1
:1000C00000002C76D888DC674F0823DFC1DFAE59EB
:1000D000E1B1B796E5E3E453C63AE651997696E87E
:1000E000E6C28426EB898C9B62ED407C6FFCEFBC02
:1000F0009C9F40F2BAA56FA5F490055A2AF75C932D
:100100006B6CF9676DC11BFCE0E40D47FEF520E662
:10011000B500D0ED902E0300943577050080841E45
:10012000080000204E0A000000C80C333333330FA0
:10013000986E12831141EF8D2114893BE65516CF3D
:10014000FEE6DB18D1844B381BF77C1D901DA4BB49
:10015000E424203284725E228100C9F124ECA1E5FE
:100160003D27770111241FBECFEFD8E0DEBFCDBF02
:1001700011E0A0E0B1E0E4E5FEE102C005900D92DF
:10018000A434B107D9F722E0A4E4B1E001C01D9284
:10019000A63DB207E1F710E0C2EBD0E004C0219722
:1001A000FE010E94BA09C13BD107C9F70E94E600CF
:1001B0000C94280F0C940000019739F46F3F7F4F87
:1001C00021F4EEE4F1E010821182089521E040E88C
:1001D00055E260E070E088E491E00E94B4058EE4AE
:1001E00091E00E94A9058823C1F18EE491E00E946C
:1001F000AC05609344017093450180934601909350
:10020000470103EB12E022E043E00E94C009C8016D
:100210009F930F938CE191E09F938F93C2ECD2E078
:10022000DF93CF930E94E009DF93CF93C8E4D1E03E
:10023000DF93CF930E94EE0684E391E09F938F9328
:10024000DF93CF930E94EE068DB79EB70E960FB642
:10025000F8949EBF0FBE8DBF0EC08AE291E09F93BF
:100260008F9388E491E09F938F930E94EE060F9006
:100270000F900F900F909FEF23ED80E3915020405F
:100280008040E1F700C00000AACF1F920F920FB686
:100290000F9211242F933F934F935F936F937F930C
:1002A0008F939F93AF93BF93EF93FF93CF93DF937E
:1002B0001F92CDB7DEB78091C600898369818EE435
:1002C00091E00E94D9040F90DF91CF91FF91EF91BF
:1002D000BF91AF919F918F917F916F915F914F915E
:1002E0003F912F910F900FBE0F901F9018956FEFB9
:1002F0007FEF81E090E00E94DC000895613420F0FF
:10030000862F90E0C7970895862F90E0C0970895B4
:100310004F925F926F927F928F929F92AF92BF9215
:10032000CF92DF92EF92FF920F931F93CF93DF93C1
:10033000FB0100E010E00F2EFDEC8F2EFCEC9F2E59
:10034000A92CFDE3BF2EF02D412C512C3201C12CE4
:10035000D12C760104C001E001C011E0FE01EF01E3
:1003600021966081662309F446C06D32A1F36B3299
:10037000A9F36E3291F311111EC0CC0CDD1CEE1CE2
:10038000FF1CD701C601880F991FAA1FBB1F880F2A
:10039000991FAA1FBB1FC80ED91EEA1EFB1E862F5F
:1003A00090E0C097092E000CAA0BBB0BC80ED91EFB
:1003B000EA1EFB1ED3CF70E060537109072E000CBC
:1003C000880B990B0E943408A50194010E94C00873
:1003D0009B01AC01C301B2010E941E072B013C012D
:1003E00020E030E040E251E4C501B4010E948A07F8
:1003F0004B015C01B3CFC701B6010E943408A301D1
:1004000092010E941E0701119058DF91CF911F9118
:100410000F91FF90EF90DF90CF90BF90AF909F90A3
:100420008F907F906F905F904F900895DB01FA015D
:100430008C91882341F09081992329F0891303C07E
:1004400011963196F5CF90E02081821B9109089595
:100450004F925F926F927F928F929F92AF92BF92D4
:10046000EF92FF920F931F93CF93DF93EC01FC0168
:10047000E25DFE4F60810E947E018C010295129523
:10048000107F1027007F1027FE01E15DFE4F608185
:10049000CE010E947E01800F911FFE01E25CFE4FA3
:1004A000208131818217930709F074C28E010E5F9B
:1004B0001F4F46E351E0B801CE010E941602892B7E
:1004C00009F008C1FE01E45AFF4F8081803369F4CE
:1004D000EF50FF4F108211821282138234971082E4
:1004E000118212821382198255C26989CE010E943B
:1004F0007E01F82E6A89CE010E947E01FE01EF5A2C
:10050000FE4F9F2D990F292F220F220F920F890F37
:1005100080836B89CE010E947E01F82E6C89CE010A
:100520000E947E01FE01EE5AFE4F9F2D990F292F4A
:10053000220F220F920F890F80836D89CE010E94B6
:100540007E01F82E6E89CE010E947E01FE01ED5AD9
:10055000FE4F9F2D990F292F220F220F920F890FE7
:100560008083BE01605E7F4FCE010E9488014B01F7
:100570005C01FE01E35BFE4F6083718382839383A2
:10058000BE01625C7F4FCE010E948801FE01E75BE5
:10059000FE4F60837183828393832FA5233549F4B3
:1005A0003496B7FAB094B7F8B09480829182A28260
:1005B000B382FE01E35BFF4F2081273549F4E4500D
:1005C000FF4FDC01CB01B05880839183A283B383BA
:1005D0007E0183EBE81A8EEFF80AF7014080518024
:1005E0006280738020E030E048EC52E4C301B20145
:1005F0000E948A070E942D094B015C0120E030E037
:1006000048EC52E40E94C0089B01AC01C301B20156
:100610000E941D0720E030E040E752E40E948A0774
:100620009B01AC01C501B4010E941E07F701608364
:100630007183828393837E01F7EBEF1AFEEFFF0A4B
:10064000F701408051806280738020E030E048EC08
:1006500052E4C301B2010E948A070E942D094B0196
:100660005C0120E030E048EC52E40E94C0089B01AD
:10067000AC01C301B2010E941D0720E030E040E759
:1006800052E40E948A079B01AC01C501B4010E949B
:100690001E07F7016083718382839383BE016559CE
:1006A0007F4FCE010E9488010E94FC07FE01E95A9B
:1006B000FE4F71836083BE0167577F4FCE010E945A
:1006C0008801FE01E75AFE4F608371838283938322
:1006D00081E089834DE351E0B801CE010E9416020A
:1006E000892B09F057C188A1863571F4FE01E35BBF
:1006F000FE4F10821182128213823497108211826F
:1007000012821382198246C16989CE010E947E013C
:10071000182F6A89CE010E947E01FE01EF5AFE4F1A
:10072000912F990F292F220F220F920F890F80836B
:100730006B89CE010E947E01182F6C89CE010E9428
:100740007E01FE01EE5AFE4F912F990F292F220FA5
:10075000220F920F890F80836D89CE010E947E0146
:10076000182F6E89CE010E947E01FE01ED5AFE4FC8
:10077000912F990F292F220F220F920F890F80831B
:10078000BE01615D7F4FCE010E9488014B015C017B
:10079000FE01E35BFE4F6083718382839383BE011E
:1007A000635B7F4FCE010E948801FE01E75BFE4F35
:1007B00060837183828393832EAD233549F434960D
:1007C000B7FAB094B7F8B09480829182A282B382D3
:1007D000FE01E45AFF4F2081273549F4E351FF4FD2
:1007E000DC01CB01B05880839183A283B3838E0157
:1007F000035B1E4FF801408051806280738020E0CF
:1008000030E048EC52E4C301B2010E948A070E9422
:100810002D094B015C0120E030E048EC52E40E94DD
:10082000C0089B01AC01C301B2010E941D0720E07A
:1008300030E040E752E40E948A079B01AC01C50109
:10084000B4010E941E07F801608371838283938341
:1008500004501109F801408051806280738020E0CB
:1008600030E048EC52E4C301B2010E948A070E94C2
:100870002D094B015C0120E030E048EC52E40E947D
:10088000C0089B01AC01C301B2010E941D0720E01A
:1008900030E040E752E40E948A079B01AC01C501A9
:1008A000B4010E941E07F8016083718382839383E1
:1008B000BE0165597F4FCE010E9488010C5E1F4F1B
:1008C000F801608371838283938326E53EE04DEED9
:1008D0005FE30E94C008F801608371838283938381
:1008E000BE0166587F4FCE010E948801FE01EF597C
:1008F000FE4F6083718382839383E85DF109608199
:10090000CE010E947E01182FFE01E657FF4F608145
:10091000CE010E947E01FE01EC5AFE4F912F990FED
:10092000292F220F220F920F890F8083E95CF10992
:100930006081CE010E947E01182FFE01E457FF4F17
:100940006081CE010E947E01FE01EB5AFE4F912F85
:10095000990F292F220F220F920F890F8083E85CB5
:10096000F1096081CE010E947E01182FFE01E2573D
:10097000FF4F6081CE010E947E01FE01EA5AFE4FC8
:10098000912F990F292F220F220F920F890F808309
:1009900081E08983DF91CF911F910F91FF90EF90BC
:1009A000BF90AF909F908F907F906F905F904F908F
:1009B0000895CF93DF93EC016432B9F481E088832A
:1009C000FE01E35CFE4F1082319611821082329656
:1009D00010823196118210823296118210823296E4
:1009E000118210823296118210828881882309F444
:1009F000A9C06D3011F06A30A1F5DE01AD5BBE4FCC
:100A00002D913C911197FE01E95BFE4F6081718150
:100A1000CE018B5B9E4FFC0180819181AB01481B15
:100A2000590BCA014FE0429FF001439FF00D112482
:100A3000EC0FFD1FE80FF91F12822F5F3F4F2D9320
:100A40003C93FE01EF5BFE4F0190F081E02DEC0F37
:100A5000FD1FE25DFE4F10821882CE010E94280227
:100A600071C0FE01E35CFE4F8081882319F06A3279
:100A700009F41082FE01E35CFE4F8081882331F08F
:100A8000319680819181862791838083643229F415
:100A900081E0FE01E35CFE4F8083FE01E05CFE4FDF
:100AA0008081882379F0DE01AF5BBE4F8D919C91F0
:100AB0001197FE01E80FF91FE25DFE4F608301967A
:100AC0008D939C936A3229F481E0FE01E05CFE4F35
:100AD0008083FE01ED5BFE4F208131813496808161
:100AE0009181329740815181FC01E41BF50BAF01EC
:100AF0007FE0729FF001739FF00D1124EC0FFD1F3A
:100B0000E40FF51F62836C32B9F4EFE0E29FB001AD
:100B1000E39F700D11246C0F7D1FFB01E40FF51F87
:100B20001282FE01ED5BFE4F2F5F3F4F318320832A
:100B300032969183808306C0FE01E95BFE4F0196E9
:100B400091838083CD5BDE4F88819981DF91CF9146
:100B50000895FC0181810895835A9E4FFC016081B4
:100B600071818281938108951F93CF93DF93EC016C
:100B7000122F798368835B834A83FB01EE0FFF1F8B
:100B8000E60FF71FEE0FFF1FEE0FFF1FE05FFE4F98
:100B9000A281B38162957295707F7627607F7627F8
:100BA000FB01E050FF4F81E090E0BC01068002C0F5
:100BB000660F771F0A94E2F79C01008402C0220F9F
:100BC000331F0A94E2F7262B2C9368817981FB016D
:100BD000EE0FFF1FE60FF71FEE0FFF1FEE0FFF1FB9
:100BE000E05FFE4FA481B58162957295707F762794
:100BF000607F7627FB01E050FF4F9C01028402C01A
:100C0000220F331F0A94E2F7048402C0880F991F51
:100C10000A94E2F7822B8C939A01550F440B550BE3
:100C200060E472E48FE090E00E947909215031097C
:100C30003D832C8388819981FC01EE0FFF1FE80F13
:100C4000F91FEE0FFF1FEE0FFF1FE05FFE4F008446
:100C5000F185E02D308388819981FC01EE0FFF1F23
:100C6000E80FF91FEE0FFF1FEE0FFF1FE05FFE4FB3
:100C70000284F385E02D8C818083112321F188810A
:100C80009981FC01EE0FFF1FE80FF91FEE0FFF1F08
:100C9000EE0FFF1FE05FFE4FA281B3812C91829582
:100CA0009295907F9827807F9827FC01E050FF4F16
:100CB00081E090E0008002C0880F991F0A94E2F75B
:100CC000822B8C937894DF91CF911F910895DC0152
:100CD0004D915C911197FA01EE0FFF1FE40FF51F84
:100CE000EE0FFF1FEE0FFF1FE05FFE4F0190F08140
:100CF000E02D2081FA01E295F295F07FFE27E07F5A
:100D0000FE27E050FF4F30E0028002C03595279566
:100D10000A94E2F720FFDCCFFA01EE0FFF1FE40F89
:100D2000F51FEE0FFF1FEE0FFF1FE05FFE4F068067
:100D3000F781E02D60830895CF92DF92EF92FF92CA
:100D40000F931F93CF93DF93EC016B017A014F3F19
:100D50005F4F41F4FB0101900020E9F731977F01DB
:100D6000E61AF70A00E010E00E151F0554F4F6012C
:100D7000E00FF11F6081CE010E9467060F5F1F4FD9
:100D8000F3CF88819981FC01EE0FFF1FE80FF91F57
:100D9000EE0FFF1FEE0FFF1FE05FFE4F0190F0818F
:100DA000E02D208182959295907F9827807F9827CB
:100DB000FC01E050FF4F822F90E0068402C0959521
:100DC00087950A94E2F780FFDCCFDF91CF911F91E6
:100DD0000F91FF90EF90DF90CF900895CF93DF9326
:100DE000CDB7DEB7D2500FB6F894DEBF0FBECDBF81
:100DF0009E01275F3D4FC95FDD4F48815981C75034
:100E0000D2406FEF71E0CE0101960E94020A4FEFCF
:100E10005FEFBE016F5F7F4FCB5FDD4F88819981B0
:100E2000C550D2400E949C06DE5F0FB6F894DEBF2C
:100E30000FBECDBFDF91CF9108955058BB27AA2791
:100E40000E9435070C9486080E94780838F00E94AA
:100E50007F0820F039F49F3F19F426F40C947508AC
:100E60000EF4E095E7FB0C946F08E92F0E949708B9
:100E700058F3BA17620773078407950720F079F4CF
:100E8000A6F50C94B9080EF4E0950B2EBA2FA02D00
:100E90000B01B90190010C01CA01A0011124FF2727
:100EA000591B99F0593F50F4503E68F11A16F04022
:100EB000A22F232F342F4427585FF3CF4695379521
:100EC0002795A795F0405395C9F77EF41F16BA0BE6
:100ED000620B730B840BBAF09150A1F0FF0FBB1F94
:100EE000661F771F881FC2F70EC0BA0F621F731FDD
:100EF000841F48F4879577956795B795F7959E3F3A
:100F000008F0B0CF9395880F08F09927EE0F9795CA
:100F1000879508950E949E070C9486080E947F087A
:100F200058F00E94780840F029F45F3F29F00C94B3
:100F30006F0851110C94BA080C9475080E94970818
:100F400068F39923B1F3552391F3951B550BBB27F8
:100F5000AA2762177307840738F09F5F5F4F220F3D
:100F6000331F441FAA1FA9F335D00E2E3AF0E0E834
:100F700032D091505040E695001CCAF72BD0FE2F7E
:100F800029D0660F771F881FBB1F26173707480712
:100F9000AB07B0E809F0BB0B802DBF01FF279358CA
:100FA0005F4F3AF09E3F510578F00C946F080C9417
:100FB000BA085F3FE4F3983ED4F38695779567953A
:100FC000B795F7959F5FC9F7880F911D96958795FF
:100FD00097F90895E1E0660F771F881FBB1F62171E
:100FE00073078407BA0720F0621B730B840BBA0BDC
:100FF000EE1F88F7E09508950E9403086894B111E8
:101000000C94BA0808950E949F0888F09F5798F0A2
:10101000B92F9927B751B0F0E1F0660F771F881FFD
:10102000991F1AF0BA95C9F714C0B13091F00E9417
:10103000B908B1E008950C94B908672F782F882774
:10104000B85F39F0B93FCCF3869577956795B3953E
:10105000D9F73EF490958095709561957F4F8F4FAD
:101060009F4F0895E89409C097FB3EF490958095B2
:10107000709561957F4F8F4F9F4F9923A9F0F92F5E
:1010800096E9BB279395F695879577956795B795DC
:10109000F111F8CFFAF4BB0F11F460FF1BC06F5FC2
:1010A0007F4F8F4F9F4F16C0882311F096E911C0D4
:1010B000772321F09EE8872F762F05C0662371F0F5
:1010C00096E8862F70E060E02AF09A95660F771F09
:1010D000881FDAF7880F9695879597F9089597F9FD
:1010E0009F6780E870E060E008959FEF80EC0895CE
:1010F00000240A94161617061806090608950024F7
:101100000A9412161306140605060895092E039470
:10111000000C11F4882352F0BB0F40F4BF2B11F4E4
:1011200060FF04C06F5F7F4F8F4F9F4F089557FD43
:101130009058440F551F59F05F3F71F04795880F45
:1011400097FB991F61F09F3F79F0879508951216DC
:1011500013061406551FF2CF4695F1DF08C0161688
:1011600017061806991FF1CF869571056105089439
:101170000895E894BB2766277727CB0197F9089550
:101180000E94D3080C9486080E94780838F00E94C8
:101190007F0820F0952311F00C946F080C947508CB
:1011A00011240C94BA080E94970870F3959FC1F31C
:1011B000950F50E0551F629FF001729FBB27F00D05
:1011C000B11D639FAA27F00DB11DAA1F649F66275A
:1011D000B00DA11D661F829F2227B00DA11D621FA9
:1011E000739FB00DA11D621F839FA00D611D221F63
:1011F000749F3327A00D611D231F849F600D211D47
:10120000822F762F6A2F11249F5750409AF0F1F0C9
:1012100088234AF0EE0FFF1FBB1F661F771F881F32
:1012200091505040A9F79E3F510580F00C946F08F3
:101230000C94BA085F3FE4F3983ED4F38695779513
:101240006795B795F795E7959F5FC1F7FE2B880FD8
:10125000911D9695879597F908950E94610930F040
:101260009F3710F40C94BA080C9438090C94530965
:10127000882371F4772321F09850872B762F07C0AD
:10128000662311F499270DC09051862B70E060E021
:101290002AF09A95660F771F881FDAF7880F9695C0
:1012A000879597F908959F3F31F0915020F48795E5
:1012B00077956795B795880F911D9695879597F9BE
:1012C00008950E949F08A0F0BEE7B91788F4BB27D5
:1012D0009F3860F41616B11D672F782F8827985F06
:1012E000F7CF869577956795B11D93959639C8F395
:1012F0000895052E97FB1EF400940E94900957FD57
:1013000007D00E94980907FC03D04EF40C94900972
:1013100050954095309521953F4F4F4F5F4F089521
:1013200090958095709561957F4F8F4F9F4F089551
:10133000A1E21A2EAA1BBB1BFD010DC0AA1FBB1FD9
:10134000EE1FFF1FA217B307E407F50720F0A21B4B
:10135000B30BE40BF50B661F771F881F991F1A94B8
:1013600069F760957095809590959B01AC01BD01E2
:10137000CF010895EE0FFF1F0590F491E02D099421
:10138000EF920F931F93CF93DF93E80147FD02C0C5
:1013900034E001C034E1042E000C550B57FF03C0AC
:1013A000519541955109E32E022F242FAE010E9441
:1013B0000F0CCE01DF91CF911F910F91EF90089507
:1013C000AEE0B0E0E6EEF9E00C94FF0E0D891E8968
:1013D00086E08C831A8309838FEF9FE79E838D833A
:1013E000AE01475E5F4F6F89788DCE0101960E94F6
:1013F0002E0AEF81F885E00FF11F10822E96E4E0AF
:101400000C941B0FAEE0B0E0E8E0FAE00C94FF0EA5
:101410008C01FA0186E08C831A83098377FF02C06E
:1014200060E070E8CB0101979E838D83A901BF0125
:10143000CE0101960E942E0A4D815E8157FD0AC0A1
:101440002F813885421753070CF49A01F801E20FF7
:10145000F31F10822E96E4E00C941B0FABE0B0E07B
:10146000E4E3FAE00C94F10E6C017B018A01FC01CB
:1014700017821682838181FFCCC1CE0101963C0187
:10148000F6019381F70193FD859193FF81917F018F
:10149000882309F4BAC1853239F493FD859193FF0D
:1014A00081917F01853229F4B60190E00E94570EA8
:1014B000E7CF912C212C312CFFE1F315D8F08B32A2
:1014C00079F038F4803279F08332A1F4232D206151
:1014D0001DC08D3261F0803369F4232D216016C068
:1014E000832D8260382EE32DE4603E2E2AC0F32D3A
:1014F000F8601DC037FC2DC020ED280F2A3040F0C9
:101500008E32B9F436FC81C1232D2064322E19C0ED
:1015100036FE06C08AE0989E200D1124922E11C03E
:10152000EAE02E9E200D1124222EF32DF0623F2E94
:1015300008C08C3621F4832D8068382E02C088368E
:1015400041F4F70193FD859193FF81917F01811112
:10155000B3CF982F9F7D9554933028F40C5F1F4F85
:101560009FE399830DC0833631F0833771F0833563
:1015700009F059C021C0F801808189830E5F1F4F97
:1015800088248394912C530113C02801F2E04F0E5C
:10159000511CF801A080B18036FE03C0692D70E0B7
:1015A00002C06FEF7FEFC5010E944C0E4C0182011B
:1015B000F32DFF773F2E16C0280122E0420E511C6A
:1015C000F801A080B18036FE03C0692D70E002C032
:1015D0006FEF7FEFC5010E94410E4C01F32DF068C3
:1015E0003F2E820133FC1BC0822D90E088169906A5
:1015F000B0F4B60180E290E00E94570E2A94F4CF36
:10160000F50137FC859137FE81915F01B60190E0CD
:101610000E94570E21102A9421E0821A9108811409
:10162000910471F7E8C0843611F0893641F5F8016C
:1016300037FE07C060817181828193810C5F1F4FEB
:1016400008C060817181072E000C880B990B0E5F1A
:101650001F4FF32DFF763F2E97FF09C09095809581
:10166000709561957F4F8F4F9F4FF0683F2E2AE016
:1016700030E0A3010E94930E882E861845C085375E
:1016800031F4232D2F7EB22E2AE030E025C0932D99
:10169000997FB92E8F36C1F018F4883579F0B5C02E
:1016A000803719F0883721F0B0C0E92FE061BE2EF5
:1016B000B4FE0DC0FB2DF460BF2E09C034FE0AC07D
:1016C000292F2660B22E06C028E030E005C020E1B8
:1016D00030E002C020E132E0F801B7FE07C06081CF
:1016E0007181828193810C5F1F4F06C0608171817F
:1016F00080E090E00E5F1F4FA3010E94930E882EA2
:101700008618FB2DFF773F2E36FE0DC0232D2E7F32
:10171000A22E891458F434FE0BC032FC09C0832D6C
:101720008E7EA82E05C0B82CA32C03C0B82C01C0F7
:10173000B92CA4FE0FC0FE01E80DF11D808180339D
:1017400021F49A2D997EA92E09C0A2FE06C0B39459
:10175000B39404C08A2D867809F0B394A3FC11C019
:10176000A0FE06C0B21488F4280C922C9B180EC060
:10177000B21460F4B60180E290E00E94570EB39478
:10178000F7CFB21418F42B1802C0982C212CA4FE09
:1017900010C0B60180E390E00E94570EA2FE17C071
:1017A000A1FC03C088E790E002C088E590E0B601A4
:1017B0000CC08A2D867859F0A1FE02C08BE201C0D0
:1017C00080E2A7FC8DE2B60190E00E94570E8914DA
:1017D00038F4B60180E390E00E94570E9A94F7CF58
:1017E0008A94F301E80DF11D8081B60190E00E941A
:1017F000570E8110F5CF222009F442CEB60180E2C7
:1018000090E00E94570E2A94F6CFF60186819781C8
:1018100002C08FEF9FEF2B96E2E10C940D0FA9E031
:10182000B0E0E5E1FCE00C94F70E6A01122FB02E57
:101830002BE3201720F0FF24F394F00E02C02CE3DA
:10184000F22E0F2D27E0AE014F5F5F4F0E94690D12
:10185000BC014981842F8970813031F0E1FC06C0E0
:10186000E0FE06C090E205C09DE203C09BE201C01D
:1018700090E05E2D507143FF3CC0911102C083E0A7
:1018800001C084E0811718F4212F281B01C020E03B
:1018900051110BC0F601822F30E2882319F03193E9
:1018A0008150FBCFC20ED11C20E0992329F0D60134
:1018B0009C93F60131966F01C6010396E2FE0AC0C1
:1018C0003EE4D6013C9341E411964C931197129655
:1018D0003C9306C03EE6F601308341E64183328305
:1018E000FC01322F40E2332309F442C041933150CE
:1018F000FACF42FF44C0911102C083E001C084E0EE
:10190000811718F4212F281B01C020E051110BC0B2
:10191000F601822F30E2882319F031938150FBCFFA
:10192000C20ED11C20E0992329F0D6019C93F60128
:1019300031966F01C6010396E2FE0BC039E4D60171
:101940003C933EE411963C93119736E412963C93F7
:1019500007C039E6F60130833EE6318336E632834E
:10196000FC01322F40E2332319F041933150FBCF79
:10197000FC01E20FF11D10828EEF9FEFA6C021E067
:1019800030E0911102C020E030E0161617061CF47A
:10199000FB01319602C0E1E0F0E02E0F3F1FBB20BB
:1019A00021F0EB2DF0E0319602C0E0E0F0E02E0FE8
:1019B0003F1FE12FF0E02E173F071CF4121B212FD1
:1019C00001C020E08E2D887159F4F601822F30E29B
:1019D000882319F031938150FBCFC20ED11C20E037
:1019E000992329F0D6019C93F60131966F0151118C
:1019F0000BC0F601822F90E3882319F09193815058
:101A0000FBCFC20ED11C20E00F2D060F9A81342F80
:101A1000307144FF03C0913309F40150101624F4CF
:101A2000093018F008E001C001E0AB0177FF02C007
:101A300040E050E0FB01E41BF50BA1E0B0E0AC0F8F
:101A4000BD1FEA0FFB1F8EE2A82E4B01801A9108E2
:101A50000B2D10E01195019511094F3FBFEF5B076A
:101A600021F4D601AC9211966D01641775072CF024
:101A70008416950614F4818101C080E34150510918
:101A80003196D60111967D014017510724F0D601F9
:101A90008C936701E2CF6417750739F4963320F40D
:101AA000953319F4311101C081E3F6018083F70108
:101AB000822F90E2882319F091938150FBCFF70198
:101AC000E20FF11D108280E090E02996ECE00C948A
:101AD000130F283008F027E03327DA01990F311D62
:101AE00087FD916000966105710539F432602E5FC3
:101AF0003D9330E32A95E1F708959F3F30F0803819
:101B00007105610509F03C5F3C5F3D93913008F041
:101B10008068911DDF93CF931F930F93FF92EF92F5
:101B2000192F987F9695E92F96959695E90FFF279F
:101B3000EE53FF4F99273327EE24FF24A701E70137
:101B400005900894079428F4360FE71EF81E491FE5
:101B5000511D660F771F881F991F0694A1F70590E6
:101B6000079428F4E70EF81E491F561FC11D770F72
:101B7000881F991F661F0694A1F70590079428F403
:101B8000F80E491F561FC71FD11D880F991F661FCA
:101B9000771F0694A1F70590079420F4490F561F6C
:101BA000C71FD81F990F661F771F881F0694A9F7B4
:101BB00084911095177041F0D695C7955795479524
:101BC000F794E7941A95C1F7E8E6F0E06894159069
:101BD000159135916591959105907FE27395E11886
:101BE000F10A430B560BC90BD009C0F7E10CF11EEB
:101BF000431F561FC91FD01D7EF4703311F48A9500
:101C0000E6CFE894015030F0080F0AF400270217DD
:101C100008F4202F2395022F7A3328F079E37D935F
:101C20002A95E9F710C07D932A9589F60694979531
:101C30006795379517951794E118F10A430B560BE2
:101C4000C90BD00998F023957E9173957A3308F0EB
:101C500070E37C932013B8F77E9170617D9330F030
:101C6000839571E37D9370E32A95E1F71124EF905A
:101C7000FF900F911F91CF91DF91992787FD90954C
:101C80000895FC010590615070400110D8F78095CF
:101C900090958E0F9F1F0895FC0161507040019038
:101CA0000110D8F7809590958E0F9F1F08950F9380
:101CB0001F93CF93DF93FB01238121FD03C08FEF9F
:101CC0009FEF2CC022FF16C04681578124813581A9
:101CD0004217530744F4A081B1819D012F5F3F4F0C
:101CE000318320838C93268137812F5F3F4F378349
:101CF000268314C08B01EC01FB010084F185E02DEB
:101D00000995892BE1F6D80116968D919C9117972C
:101D1000019617969C938E931697CE01DF91CF91E3
:101D20001F910F910895FA01AA27283051F120310F
:101D300081F1E8946F936E7F6E5F7F4F8F4F9F4F5F
:101D4000AF4FB1E03ED0B4E03CD0670F781F891FA1
:101D50009A1FA11D680F791F8A1F911DA11D6A0F6F
:101D6000711D811D911DA11D20D009F468943F9122
:101D70002AE0269F11243019305D3193DEF6CF0121
:101D80000895462F4770405D4193B3E00FD0C9F7E7
:101D9000F6CF462F4F70405D4A3318F0495D31FD54
:101DA0004052419302D0A9F7EACFB4E0A6959795A7
:101DB000879577956795BA95C9F70097610571057D
:101DC00008959B01AC010A2E0694579547953795C7
:101DD0002795BA95C9F7620F731F841F951FA01D21
:101DE00008952F923F924F925F926F927F928F92BF
:101DF0009F92AF92BF92CF92DF92EF92FF920F939A
:101E00001F93CF93DF93CDB7DEB7CA1BDB0B0FB6A3
:101E1000F894DEBF0FBECDBF09942A883988488860
:101E20005F846E847D848C849B84AA84B984C884F6
:101E3000DF80EE80FD800C811B81AA81B981CE0FED
:101E4000D11D0FB6F894DEBF0FBECDBFED010895D2
:041E5000F894FFCF34
:101E5400070005000700040003000100020006005B
:101E6400C000C100C200C600C500C400737065652F
:101E740064203D2025732067090077616974696EC9
:101E8400672E2E2E0A00244750474741002447500E
:041E9400524D430068
:00000001FF
